:100000000C94EE000C940D010C940D010C940D0158
:100010000C940D010C940D010C940D010C940D0128
:100020000C940D010C940D010C940D010C940D0118
:100030000C940D010C940D010C940D010C940D0108
:100040000C940D010C940D010C943A3D0C940D018F
:100050000C940D010C940D010C940D010C940D01E8
:100060000C940D010C940D010C940D010C940D01D8
:100070000C940D010C940D010C940D010C940D01C8
:100080000C940D010C940D010C940D013A03FD0824
:10009000FD08FD08FD089D03FD08FD08FD08FD089D
:1000A000FD08FD08FD088203FD081E0160018E01A8
:1000B000C601EF0131028202C402E30216035903B2
:1000C000FD08FD08FD08FD089703FD08FD08FD0873
:1000D000FD08FD08FD08FD08FD08FD08FD08FD08F8
:1000E000FD08FD08FD08FD08FD08FD08FD08FD08E8
:1000F000FD08FD08FD08FD08FD08FD08FD08FD08D8
:10010000FD08FD08FD08FD08FD08FD08DF030804E3
:1001100031046904BA04D404FD043F0572059B054B
:10012000C405010639068506C206E106F10629075F
:100130008407BC07DB07090819084C087A08B208CD
:100140001C3B213B2A3B433B4A3B4D3B503B7B3BCB
:10015000A33BC73B103C153C223C253C513CA03CFA
:10016000A73CAD3CB43CBC3CC43CCB3CD23CD93CB1
:10017000DF3CE23CEB3CF03CF53CF83CFD3C023D16
:10018000053D083D0B3D0E3D133D163D193D1C3D03
:10019000213D05A84CCDB2D44EB93836A9020C5039
:1001A000B9918688083CA6AAAA2ABE000000803F12
:1001B00007060504030201001020304050607071F2
:1001C00072737475767767574737271704031221C0
:1001D00030405162737465564737261511241FBE8F
:1001E000CFEFD0E4DEBFCDBF11E0A0E0B1E0E0EDA5
:1001F000F9EA00E00BBF02C007900D92AE36B107DE
:10020000D9F711E0AEE6B1E001C01D92A03FB10701
:10021000E1F70E9459510C94E6540C94000090E0D0
:1002200081978A35910508F0E8C78A5B9F4FFC01EA
:10023000EE0FFF1F0590F491E02D09948091B2011B
:10024000862B8093B2018091B301862B8093B301FA
:100250008091B401862B8093B4018091B901862BE3
:100260008093B9018091BD01862B8093BD0180915F
:10027000C101862B8093C1018091C201862B80939E
:10028000C2018091C501862B8093C5018091C9016F
:10029000862B8093C9018091CB01862B8093CB0163
:1002A0008091CD01862B8093CD018091D101862B49
:1002B0008093D1018091D401862B8093D40156C0C4
:1002C0008091B201862B8093B2018091B301862B7D
:1002D0008093B3018091B401862B8093B401809107
:1002E000BB01862B8093BB018091C301862B809339
:1002F000C3018091CB01862B8093CB018091D301E8
:10030000862B8093D3018091DA01862B8093DA01CA
:100310008091DB01862B8093DB0126C38091B101A4
:10032000862B8093B1018091B201862B8093B2011C
:100330008091B301862B8093B3018091B401862B09
:100340008093B4018091B501862B8093B501809193
:10035000BA01862B8093BA018091C301862B8093CA
:10036000C3018091CC01862B8093CC018091D50173
:10037000862B8093D5018091D901862B8093D9015A
:100380008091DD01862B8093DD01AEC58091B201A5
:10039000862B8093B2018091B301862B8093B301A9
:1003A0008091B401862B8093B4018091B901862B92
:1003B0008093B9018091BD01862B8093BD0180910E
:1003C000C501862B8093C5018091CC01862B80933B
:1003D000CC018091D301862B8093D30164C180919D
:1003E000B401862B8093B4018091BC01862B80934D
:1003F000BC018091C101862B8093C1018091C20113
:10040000862B8093C2018091C301862B8093C30108
:100410008091C401862B8093C4018091C501862BF5
:100420008093C5018091C901862B8093C901809179
:10043000CC01862B8093CC018091D201862B8093B6
:10044000D2018091D401862B8093D4018091DB016D
:10045000862B8093DB018091DC01862B8093DC016D
:100460004DC58091B201862B8093B2018091B3017A
:10047000862B8093B3018091B401862B8093B401C5
:100480008091B901862B8093B9018091BD01862BA3
:100490008093BD018091C501862B8093C501809119
:1004A000CD01862B8093CD018091D101862B809345
:1004B000D1018091D201862B8093D2018091D3010A
:1004C000862B8093D3018091D401862B8093D40115
:1004D0008091D901862B8093D9018091E101862BEF
:1004E0008093E1018091E201862B8093E20180916B
:1004F000E301862B8093E3018091E401862B8093B6
:10050000E4012AC68091B201862B8093B2018091CA
:10051000B301862B8093B3018091B401862B809325
:10052000B4018091B901862B8093B9018091BD01FE
:10053000862B8093BD018091C101862B8093C101E0
:100540008091C501862B8093C5018091C901862BBE
:100550008093C9018091CA01862B8093CA01809142
:10056000CB01862B8093CB018091CC01862B80938D
:10057000CC018091D101862B8093D1018091DA0149
:10058000862B8093DA01B5C48091B201862B8093CB
:10059000B2018091BA01862B8093BA018091C20189
:1005A000862B8093C2018091CB01862B8093CB0157
:1005B0008091D401862B8093D4018091DD01862B1C
:1005C0008093DD018ACF8091B201862B8093B201A6
:1005D0008091B301862B8093B3018091B401862B67
:1005E0008093B4018091B901862B8093B9018091E9
:1005F000BD01862B8093BD018091C101862B809324
:10060000C1018091C501862B8093C5018091CA01EB
:10061000862B8093CA018091CB01862B8093CB01DE
:100620008091CC01862B8093CC010DC48091B201C6
:10063000862B8093B2018091B301862B8093B30106
:100640008091BC01862B8093BC018091C501862BD3
:100650008093C5018091CA01862B8093CA01809145
:10066000CB01862B8093CB018091CC01862B80938C
:10067000CC01E4C38091B301862B8093B3018091B8
:10068000CB01862B8093CB018091D301862B809365
:10069000D3018091DA01862B8093DA018091DB010E
:1006A000862B8093DB018091DC01862B8093DC011B
:1006B00014CF8091BA01862B8093BA018091BB013F
:1006C000862B8093BB018091C201862B8093C2014F
:1006D0008091C301862B8093C3018091D201862B28
:1006E0008093D2018091D301862B8093D301809196
:1006F000DA01862B8093DA018091DB01862B8093CF
:10070000DB0108958091BA01862B8093BA01809114
:10071000BB01862B8093BB018091C201862B809305
:10072000C2018091C301862B8093C30108958091FB
:10073000B301862B8093B3010FCE8091B201862B3B
:100740008093B2018091B301862B8093B301809195
:10075000B501862B8093B5018091B901862B8093DA
:10076000B9018091BC01862B8093BC018091C101AD
:10077000862B8093C1018091C301862B8093C30196
:100780008091C501862B8093C5018091CA01862B7B
:100790008093CA018091D101862B8093D1018091F1
:1007A000D301862B8093D3018091D901862B80932E
:1007B000D9018091DC01862B8093DC01D0C080912F
:1007C000B101862B8093B1018091B501862B809376
:1007D000B5018091B901862B8093B9018091BD014B
:1007E000862B8093BD018091C101862B8093C1012E
:1007F0008091C201862B8093C2018091C301862B18
:100800008093C3018091C401862B8093C4010CC3E3
:100810008091B101862B8093B1018091B201862B2A
:100820008093B2018091B301862B8093B3018091B4
:10083000B401862B8093B4018091B901862B8093FB
:10084000B9018091BD01862B8093BD018091C101CA
:10085000862B8093C1018091C501862B8093C501B1
:1008600016C38091B201862B8093B2018091B301AF
:10087000862B8093B3018091B401862B8093B401C1
:100880008091BD01862B8093BD018091B901862B9B
:100890008093B9018091C101862B8093C101809121
:1008A000C901862B8093C9018091D101862B809349
:1008B000D1018091D901862B8093D9018091DD01EE
:1008C000862B8093DD018091D901862B8093D901FD
:1008D0000BC38091B101862B8093B1018091B2014D
:1008E000862B8093B2018091B301862B8093B30154
:1008F0008091B901862B8093B9018091BC01862B30
:100900008093BC018091C101862B8093C1018091AD
:10091000C501862B8093C5018091C901862B8093E8
:10092000C9018091CD01862B8093CD018091D101A9
:10093000862B8093D1018091D501862B8093D501A0
:100940008091D901862B8093D9018091DC01862B7F
:100950008093DC018091E101862B8093E1018091FD
:10096000E201862B8093E2018091E301862B809344
:10097000E30108958091B101862B8093B1018091AC
:10098000B201862B8093B2018091B301862B8093B4
:10099000B3018091B401862B8093B4018091B5019D
:1009A000862B8093B50105C08091B101862B809381
:1009B000B1018091B901862B8093B9018091C10169
:1009C000862B8093C1018091C901862B8093C90138
:1009D0008091CA01862B8093CA018091CB01862B1E
:1009E0008093CB018091CC01862B8093CC018091A8
:1009F000D101862B8093D1016BCD8091B201862BE2
:100A00008093B2018091B301862B8093B3018091D2
:100A1000B401862B8093B4018091B501862B80931D
:100A2000B5018091B901862B8093B9018091BD01F8
:100A3000862B8093BD018091C101862B8093C101DB
:100A40008091C501862B8093C5018091C901862BB9
:100A50008093C9018091CB01862B8093CB0180913B
:100A6000CC01862B8093CC018091CD01862B809385
:100A7000CD018091D101862B8093D1017CCC8091D6
:100A8000B101862B8093B1018091B501862B8093B3
:100A9000B5018091B901862B8093B9018091BD0188
:100AA000862B8093BD018091C101862B8093C1016B
:100AB0008091C501862B8093C5018091C901862B49
:100AC0008093C9018091CA01862B8093CA018091CD
:100AD000CB01862B8093CB018091CC01862B809318
:100AE000CC0191C28091B201862B8093B20180919A
:100AF000B301862B8093B3018091B401862B809340
:100B0000B4018091BB01862B8093BB018091C3010E
:100B1000862B8093C3018091CB01862B8093CB01E0
:100B20008091D301862B8093D3018091DB01862BAA
:100B30008093DB01D9C18091B201862B8093B201F1
:100B40008091B301862B8093B3018091B901862BEC
:100B50008093B9018091BC01862B8093BC01809168
:100B6000C401862B8093C4018091CC01862B809395
:100B7000CC018091D401862B8093D4018091DC013B
:100B8000862B8093DC01B3CC8091B101862B8093BE
:100B9000B1018091B501862B8093B5018091B90197
:100BA000862B8093B9018091BC01862B8093BC0178
:100BB0008091C101862B8093C1018091C301862B56
:100BC0008093C3018091C901862B8093C9018091D4
:100BD000CA01862B8093CA018091D101862B809314
:100BE000D1018091D301862B8093D3018091D901CB
:100BF000862B8093D9018091DC01862B8093DC01C8
:100C0000A6C28091B101862B8093B1018091B2017F
:100C1000862B8093B2018091B301862B8093B30120
:100C20008091B401862B8093B4018091B501862B0D
:100C30008093B5018091B901862B8093B901809191
:100C4000C101862B8093C1018091C901862B8093BD
:100C5000C9018091D101862B8093D1018091D90166
:100C6000862B8093D9018091E101862B8093E1014D
:100C700008958091B101862B8093B1018091B501D7
:100C8000862B8093B5018091B901862B8093B901A1
:100C90008091BD01862B8093BD018091C101862B7F
:100CA0008093C1018091C501862B8093C5018091FD
:100CB000C901862B8093C9018091CB01862B80933B
:100CC000CB018091CD01862B8093CD018091D10104
:100CD000862B8093D1018091D301862B8093D30101
:100CE0008091D501862B8093D5018091D901862BE7
:100CF0008093D9018091DA01862B8093DA0180916B
:100D0000DC01862B8093DC011DC28091B101862B12
:100D10008093B1018091B501862B8093B5018091BC
:100D2000B901862B8093B9018091BD01862B8093F8
:100D3000BD018091C101862B8093C1018091C401C6
:100D4000862B8093C4018091C501862B8093C501B9
:100D50008091C901862B8093C9018091CB01862B9C
:100D60008093CB018091CD01862B8093CD01809122
:100D7000D101862B8093D1018091D201862B809363
:100D8000D201D6C18091B201862B8093B2018091AD
:100D9000B301862B8093B3018091B401862B80939D
:100DA000B4018091B901862B8093B9018091BD0176
:100DB000862B8093BD018091C101862B8093C10158
:100DC00033C08091B101862B8093B1018091B9012C
:100DD000862B8093B9018091C101862B8093C1013C
:100DE00056C08091B201862B8093B2018091B301ED
:100DF000862B8093B3018091B501862B8093B5013A
:100E00008091B901862B8093B9018091BC01862B1A
:100E10008093BC018091C101862B8093C101809198
:100E2000C301862B8093C3018091C501862B8093DB
:100E3000C5018091C901862B8093C9018091CD01A4
:100E4000862B8093CD018091D101862B8093D10197
:100E50008DCA8091B101862B8093B1018091B5013B
:100E6000862B8093B5018091B901862B8093B901BF
:100E70008091BC01862B8093BC018091C101862B9F
:100E80008093C1018091C301862B8093C30180911F
:100E9000C901862B8093C9018091CA01862B80935A
:100EA000CA018091CB01862B8093CB018091CC012C
:100EB000862B8093CC018091D101862B8093D10128
:100EC0008091D501862B8093D5018091D901862B05
:100ED0008093D9018091DD01862B8093DD01809183
:100EE000E101862B8093E1018091E201862B8093C2
:100EF000E2018091E301862B8093E3018091E4017C
:100F0000862B8093E40108958091B101862B809314
:100F1000B1018091B201862B8093B2018091B3011F
:100F2000862B8093B3018091B401862B8093B4010A
:100F30008091BD01862B8093BD018091C501862BD8
:100F40008093C5018091CA01862B8093CA0180914C
:100F5000CB01862B8093CB018091CC01862B809393
:100F6000CC018091D101862B8093D1018091D90150
:100F7000862B8093D901B6CA8091B301862B8093CA
:100F8000B3018091BB01862B8093BB018091C3018B
:100F9000862B8093C3018091CB01862B8093CB015C
:100FA0008091D301862B8093D3018091DB01862B26
:100FB0008093DB0192CA8091B201862B8093B201AB
:100FC0008091B301862B8093B3018091B401862B6D
:100FD0008093B4018091B901862B8093B9018091EF
:100FE000BD01862B8093BD018091C101862B80932A
:100FF000C1018091C501862B8093C5018091C901F3
:10100000862B8093C9018091CD01862B8093CD01E1
:101010008AC08091B301862B8093B3018091BA017D
:10102000862B8093BA018091BC01862B8093BC01F2
:10103000DBCF8091B201862B8093B2018091B40105
:10104000862B8093B4018091B901862B8093B901DE
:101050008091BB01862B8093BB018091BD01862BC3
:101060008093BD018091C101862B8093C101809145
:10107000C301862B8093C3018091C501862B809389
:10108000C5018091C901862B8093C9018091CB0154
:10109000862B8093CB01B7CF8091B101862B8093B3
:1010A000B1018091B501862B8093B5018091B90182
:1010B000862B8093B9018091BD01862B8093BD0161
:1010C0008091C201862B8093C2018091C401862B3E
:1010D0008093C4018091CB01862B8093CB018091BA
:1010E000D201862B8093D2018091D401862B8093EC
:1010F000D40123C08091B301862B8093B3018091EA
:10110000BB01862B8093BB018091C301862B80930A
:10111000C3018091CA01862B8093CA018091CC01C2
:10112000862B8093CC018091D101862B8093D101B5
:101130008091D501862B8093D5018091D901862B92
:101140008093D9018091DD01862B8093DD01809110
:10115000E101862B8093E1018091E501862B80934C
:10116000E50108958091B101862B8093B1018091B2
:10117000B201862B8093B2018091B301862B8093BC
:10118000B3018091B401862B8093B4018091B501A5
:10119000862B8093B5018091B901862B8093B9018C
:1011A0008091C201862B8093C2018091CB01862B56
:1011B0008093CB018091D401862B8093D4018091C0
:1011C000DD01862B8093DD018091E101862B8093E8
:1011D000E1018091E201862B8093E2018091E3019D
:1011E000862B8093E3018091E401862B8093E401B8
:1011F0008091E501862B8093E50108950E949D3D35
:101200008091B00180688093B0018091B1018168C4
:101210008093B1018091B20181608093B20180918D
:10122000B30180688093B3018091B401806880939A
:10123000B4018091B50181688093B5018091B601B8
:1012400081608093B6018091B70180688093B70177
:101250008091B80180688093B8018091C001806856
:101260008093C0018091C80180688093C8018091FB
:10127000D00180688093D0018091D80180688093EC
:10128000D8018091E00180688093E0018091E801BD
:10129000806C8093E8018091BC0180688093BC01E0
:1012A0008091C40180688093C4018091CC018068E2
:1012B0008093CC018091D40180688093D401809187
:1012C000DC0180688093DC018091E4018068809378
:1012D000E4018091EC01806C8093EC018091B90174
:1012E00081608093B9018091BA0181608093BA01D5
:1012F0008091BD0181608093BD018091BE018160BC
:101300008093BE0108950E949D3D8091B001806848
:101310008093B0018091B10180688093B101809188
:10132000B20181688093B2018091B30181608093A2
:10133000B3018091B40180688093B4018091B501BC
:1013400080688093B5018091B60181688093B60171
:101350008091B70181608093B7018091B901806865
:101360008093B9018091C10180688093C10180910F
:10137000C90180688093C9018091D1018068809300
:10138000D1018091D90180688093D9018091E101D8
:1013900080688093E1018091E901806C8093E9018C
:1013A0008091BD0180688093BD018091C5018068F6
:1013B0008093C5018091CD0180688093CD0180919B
:1013C000D50180688093D5018091DD01806880938C
:1013D000DD018091E50180688093E501EDEEF1E0AB
:1013E0008081806C80838091BA0181608093BA0192
:1013F0008091BB0181608093BB018091BE018160BF
:101400008093BE018091BF0181608093BF010895E8
:101410000E949D3D8091B00181608093B0018091D8
:10142000B10180688093B1018091B201806880939E
:10143000B2018091B30181688093B3018091B401BE
:1014400081608093B4018091B50180688093B5017B
:101450008091B60180688093B6018091B701816860
:101460008093B7018091BA0180688093BA0180911E
:10147000C20180688093C2018091CA018068809314
:10148000CA018091D20180688093D2018091DA01F3
:1014900080688093DA018091E20180688093E201A4
:1014A0008091EA01806C8093EA018091BE0180689E
:1014B0008093BE018091C60180688093C6018091AF
:1014C000CE0180688093CE018091D60180688093A0
:1014D000D6018091DE0180688093DE018091E60173
:1014E00080688093E601EEEEF1E08081806C80837D
:1014F0008091BB0181608093BB018091BC018160C0
:101500008093BC018091BF0181608093BF01809175
:10151000B80181608093B80108950E949D3D80913B
:10152000B00181688093B0018091B10181608093A6
:10153000B1018091B20180688093B2018091B301C2
:1015400080688093B3018091B40181688093B40175
:101550008091B50181608093B5018091B60180686A
:101560008093B6018091B70180688093B701809124
:10157000BB0180688093BB018091C3018068809328
:10158000C3018091CB0180688093CB018091D3010E
:1015900080688093D3018091DB0180688093DB01B8
:1015A0008091E30180688093E3018091EB01806C7E
:1015B0008093EB018091BF0180688093BF0180918F
:1015C000C70180688093C7018091CF0180688093B4
:1015D000CF018091D70180688093D7018091DF018E
:1015E00080688093DF018091E70180688093E70144
:1015F000EFEEF1E08081806C80838091BC0181609E
:101600008093BC018091BD0181608093BD01809178
:10161000B80181608093B8018091B90181608093A5
:10162000B90108950E94FE0887EB91E02091B7016F
:10163000236C2093B7012091BF01236C2093BF013D
:101640002091C701236C2093C7012091CF01236C07
:101650002093CF012091D701236C2093D7012091B3
:10166000DF01236C2093DF012091E701236C20939D
:10167000E7012091EF01236C2093EF01FC012291FF
:10168000206420832091BE0120642093BE0120911C
:10169000C60120642093C6012091CE0120642093CE
:1016A000CE012091D60120642093D6012091DE0145
:1016B00020642093DE012091E60120642093E6015E
:1016C0002091EE0120642093EE01FC0132972081ED
:1016D000206420832091BD0120642093BD012091CE
:1016E000C50120642093C5012091CD012064209381
:1016F000CD012091D50120642093D5012091DD01F9
:1017000020642093DD012091E50120642093E50110
:101710002091ED0120642093ED01FC01339720819D
:10172000206420832091BC0120642093BC0120917F
:10173000C40120642093C4012091CC012064209333
:10174000CC012091D40120642093D4012091DC01AC
:1017500020642093DC012091E40120642093E401C3
:101760002091EC0120642093EC01FC0134978081EE
:10177000806480838091BB0180648093BB018091F1
:10178000C30180648093C3018091CB018064809306
:10179000CB018091D30180648093D3018091DB01E0
:1017A00080648093DB018091E30180648093E30196
:1017B0008091EB0180648093EB0108958091B201E8
:1017C00080618093B2018091B60188608093B601F8
:1017D0008091BB0180618093BB018091BD018860D5
:1017E0008093BD018091C20184608093C201809189
:1017F000C40188618093C4018091C6018062809396
:10180000C6018091CB0184608093CB018091CC0193
:1018100088618093CC018091CD0180628093CD015D
:101820008091D4018C638093D4018091DC01886124
:101830008093DC018091E30188618093E3018091D2
:10184000E40188618093E4018091E50188618093DF
:10185000E5018091EC0188618093EC01089580910D
:10186000B40188618093B4018091BC018861809348
:10187000BC018091C4018C638093C4018091CC0130
:101880008C638093CC018091D4018C638093D401CC
:101890008091DC0188618093DC018091E3018861A3
:1018A0008093E3018091E40188618093E401809159
:1018B000E50188618093E5018091EC018861809366
:1018C000EC0108958091B20188608093B20180910B
:1018D000B60180618093B6018091BB0188608093DE
:1018E000BB018091BD0180618093BD018091C201E7
:1018F00080628093C2018091C40188618093C40199
:101900008091C60184608093C6018091CB01806282
:101910008093CB018091CC0188618093CC01809130
:10192000CD0184608093CD018091D4018C6380933C
:10193000D4018091DC0188618093DC018091E30116
:1019400088618093E3018091E40188618093E401E0
:101950008091E50188618093E5018091EC018861C7
:101960008093EC0108958091B40188618093B40163
:101970008091BC0188618093BC018091C4018C631B
:101980008093C4018091CC018C638093CC018091C1
:10199000D4018C638093D4018091DC0188618093B1
:1019A000DC018091E30188618093E3018091E4018F
:1019B00088618093E4018091E50188618093E5016D
:1019C0008091EC0188618093EC0108950E94830965
:1019D0000E94620C82E060E045E027E00E94045132
:1019E0000E94FE4E0E94FE4E0E94FE4E88E00E9423
:1019F000DA3E0E9483090E94B30C82E060E045E079
:101A000027E00E94045182E060E045E027E00E9468
:101A100004510E94FE4E0E94FE4E0E94FE4E88E03F
:101A20000E94DA3E0E9483098091B301886080930E
:101A3000B3018091B80180618093B8018091BA01AF
:101A400088608093BA018091C10188618093C1014F
:101A50008091C30180628093C3018091C80184603A
:101A60008093C8018091C90188618093C9018091E8
:101A7000CA0180628093CA018091D1018C638093F6
:101A8000D1018091D90188618093D9018091E001D1
:101A900088618093E0018091E10188618093E10198
:101AA0008091E20188618093E2018091E90188617F
:101AB0008093E9010E94FE4E0E94FE4E0E94FE4E5F
:101AC00088E00E94DA3E0E948309E0EBF1E0808129
:101AD000886180838091B80188618093B801808992
:101AE0008C63808B8091C8018C638093C80180A136
:101AF0008C6380A380A5886180A78091E0018861C4
:101B00008093E0018091E00188618093E001809101
:101B1000E00188618093E00180AD886180AF0E9420
:101B2000FE4E0E94FE4E0E94FE4E88E00E94DA3E6B
:101B300008950E94FE088091B7018FEF8093B7014E
:101B40009091BF018093BF019091C7018093C7011D
:101B50009091CF018093CF019091D7018093D701CD
:101B60009091DF018093DF019091E7018093E7017D
:101B70009091EF018093EF010E94FE4E0E94FE4E75
:101B80000E94FE4E80E50E94DA3E0E94FE0880918F
:101B9000B701836C8093B7018091BF01836C809300
:101BA000BF018091C701836C8093C7018091CF01F1
:101BB000836C8093CF018091D701836C8093D70190
:101BC0008091DF01836C8093DF018091E701836C5A
:101BD0008093E7018091EF01836C8093EF01809106
:101BE000B60180628093B6018091BE0180628093CD
:101BF000BE018091C60180628093C6018091CE01B2
:101C000080628093CE018091D60180628093D6015C
:101C10008091DE0180628093DE018091E601806226
:101C20008093E6018091EE0180628093EE018091C5
:101C3000B50180618093B5018091BD018061809381
:101C4000BD018091C50180618093C5018091CD0166
:101C500080618093CD018091D50180618093D50111
:101C60008091DD0180618093DD018091E5018061DB
:101C70008093E5018091ED0180618093ED01809179
:101C8000B40188608093B4018091BC018860809326
:101C9000BC018091C40188608093C4018091CC0113
:101CA00088608093CC018091D40188608093D401B6
:101CB0008091DC0188608093DC018091E401886080
:101CC0008093E4018091EC0188608093EC010E9494
:101CD000FE4E0E94FE4E0E94FE4E80E10E94DA3EC1
:101CE0000E94120B0E94FE4E0E94FE4E0E94FE4E6B
:101CF00080E10E94DA3E0E94120B8091B601806161
:101D00008093B6018091BF0180618093BF01809173
:101D1000CF0184608093CF018091E7018861809337
:101D2000E7010E94FE4E0E94FE4E0E94FE4E88E099
:101D30000E94DA3E0E94120B8091B7018861809365
:101D4000B7018091BF0188618093BF018091C70175
:101D50008C638093C7018091CF018C638093CF0106
:101D60008091D7018C638093D7018091DF018861D6
:101D70008093DF018091E70188618093E701809182
:101D8000E70188618093E7018091E7018861809392
:101D9000E7018091EF0188618093EF010E94FE4E80
:101DA0000E94FE4E0E94FE4E88E00E94DA3E0E9493
:101DB000120B8091B40188608093B4018091BD01C1
:101DC00088608093BD018091BF0180618093BF01D5
:101DD0008091C40180628093C4018091C6018861B2
:101DE0008093C6018091CD0180628093CD01809166
:101DF000CE0188618093CE018091CF018460809371
:101E0000CF018091D6018C638093D6018091DE0151
:101E100088618093DE018091E50188618093E5010E
:101E20008091E60188618093E6018091E7018861F5
:101E30008093E7018091EE0188618093EE010E941A
:101E4000FE4E0E94FE4E0E94FE4E88E00E94DA3E48
:101E50000E94120B8091B50188618093B501809139
:101E6000BD0188618093BD018091C5018C63809321
:101E7000C5018091CD018C638093CD018091D50106
:101E80008C638093D5018091DD0188618093DD01B1
:101E90008091E40188618093E4018091E50188618B
:101EA0008093E5018091E60188618093E60180914D
:101EB000ED0188618093ED010E94FE4E0E94FE4E6E
:101EC0000E94FE4E88E00E94DA3E0E94120B0E94A1
:101ED000DE0B0E94FE4E0E94FE4E0E94FE4E0E94AD
:101EE00083090E942F0C80E090E0FC0153E0EE0F8C
:101EF000FF1F5A95E1F7E055FE4F248120642483AB
:101F000025812064258326812064268327812064FF
:101F1000278301968830910541F70E94FE4E0E946A
:101F2000FE4E0E94FE4E88E00E94DA3E0E94080AA1
:101F30000E94620C80E090E0FC0143E0EE0FFF1F86
:101F40004A95E1F7E055FE4F2581206425832681DF
:101F50002064268327812064278301968830910599
:101F600059F70E94FE4E0E94FE4E0E94FE4E88E0EF
:101F70000E94DA3E0E948D0A0E94B30C80E090E03D
:101F8000FC0133E0EE0FFF1F3A95E1F7E055FE4FFD
:101F90002681206426832781206427830196883048
:101FA000910571F70E94FE4E0E94FE4E0E94FE4E69
:101FB00088E00E94DA3E0E94FE080E94DE0B80E06C
:101FC00090E0FC0123E0EE0FFF1F2A95E1F7E055BA
:101FD000FE4F27812064278301968830910589F779
:101FE0000E94FE4E0E94FE4E0E94FE4E88E00E941D
:101FF000DA3E0895CF93F8940E94990DCDE00E94A7
:1020000083090E942F0C0E94FE4E0E94FE4E0E94E9
:10201000FE4E88E00E94DA3E0E94080A0E94620C8E
:102020000E94FE4E0E94FE4E0E94FE4E88E00E94DC
:10203000DA3E0E948D0A0E94B30C0E94FE4E0E945E
:10204000FE4E0E94FE4E88E00E94DA3E0E94FE088C
:102050000E94DE0B0E94FE4E0E94FE4E0E94FE4E2B
:1020600088E00E94DA3EC15051F60E94E60C789456
:10207000CF9108952F923F924F925F926F927F92ED
:102080008F929F92AF92BF92CF92DF92EF92FF9288
:102090000F931F93CF93DF930E949D3DC0E0D0E04C
:1020A00001E010E087E0E82EF12C3091B001C8018A
:1020B0000C2E02C0880F991F0A94E2F7282F382BA4
:1020C0003093B0013091BF01C7018C1B9D0BA8015B
:1020D00002C0440F551F8A95E2F7CA01342B309392
:1020E000BF019091C001922B9093C0019091CF01BC
:1020F000982B9093CF019091D001922B9093D00187
:102100009091DF01982B9093DF019091E001922B49
:102110009093E0019091EF01982B9093EF0186E06E
:102120000E94C83E2196C830D10509F0BECFC1E05B
:10213000D0E0B1E06B2E712C17E0412E512C0E94A3
:102140009D3D40E050E0FE01E055FE4FC2018C1B7A
:102150009D0B80559E4FBC01685F7F4F8F01005FD4
:102160001F4FA8E1EA2EF12CE80EF91EB0E2CB2EAB
:10217000D12CCE0EDF1E28E2A22EB12CA80EB91E45
:1021800030E3832E912C8E0E9F1EA8E32A2E312C35
:10219000280E391E2081C301042E02C0880F991F0A
:1021A0000A94E2F7282B2083DB019C91982B9C93C7
:1021B000D8019C91982B9C93D7019C91982B9C9330
:1021C000D6019C91982B9C93D5019C91982B9C9324
:1021D000D4019C91982B9C93D1019C91982B9C931A
:1021E0004F5F5F4F48305105A9F686E00E94C83E18
:1021F0002196C830D10509F0A2CFDF91CF911F9170
:102200000F91FF90EF90DF90CF90BF90AF909F9095
:102210008F907F906F905F904F903F902F90089598
:10222000CF93DF93EC01E62FF0E0DF011196AA0FC8
:10223000BB1FAA0FBB1FA80FB91F50E0A40FB51FEB
:102240008C9190E0022E02C0959587950A94E2F752
:1022500080FD19C0EE0FFF1FEE0FFF1FEC0FFD1FDB
:1022600081E090E002C0880F991F2A95E2F7E40F01
:10227000F51F982F90952081922390839C91982B05
:102280009C9380E001C081E0DF91CF910895CF93CE
:10229000DF93EC01E62FF0E0DF011197AA0FBB1FDF
:1022A000AA0FBB1FA80FB91F50E0A40FB51F8C9138
:1022B00090E0022E02C0959587950A94E2F780FD82
:1022C00019C0EE0FFF1FEE0FFF1FEC0FFD1F81E087
:1022D00090E002C0880F991F2A95E2F7E40FF51FDE
:1022E000982F90952081922390839C91982B9C937A
:1022F00080E001C081E0DF91CF91089570E0660F2A
:10230000771F660F771F680F791F50E0FA0131962B
:10231000E60FF71F808190E0022E02C09595879509
:102320000A94E2F780FD14C081E090E002C0880FBB
:10233000991F2A95E2F7DB01A40FB51F982F9095FE
:102340002C9192239C939081982B908380E0089508
:1023500081E0089570E0660F771F660F771F680FA2
:10236000791F50E0FA013197E60FF71F808190E066
:10237000022E02C0959587950A94E2F780FD14C05D
:1023800081E090E002C0880F991F2A95E2F7DB01F7
:10239000A40FB51F982F90952C9192239C93908118
:1023A000982B908380E0089581E00895E62FF0E077
:1023B000EE0FFF1FEE0FFF1FE80FF91FE40FF11DD7
:1023C0006081822F90E00196462F50E0082E02C0D7
:1023D000559547950A94E2F740FD15C041E050E05D
:1023E000DA0102C0AA0FBB1F2A95E2F79D012095D2
:1023F0002623BA0102C0660F771F8A95E2F7262BC3
:10240000208380E0089581E00895E62FF0E0EE0F4C
:10241000FF1FEE0FFF1FE80FF91FE40FF11D608192
:10242000822F90E00197462F50E0082E02C055956C
:1024300047950A94E2F740FD15C041E050E0DA010B
:1024400002C0AA0FBB1F2A95E2F79D012095262303
:10245000BA0102C0660F771F8A95E2F7262B208308
:1024600080E0089581E008952F923F924F925F920D
:102470006F927F928F929F92AF92BF92CF92DF9294
:10248000EF92FF920F931F93CF93DF9300D000D072
:1024900000D0CDB7DEB73C0151E0C52ED12CEE24E3
:1024A000FF2461E0862E912C8C2D0E94B43D8E2D50
:1024B0000E94B43D530101E010E0170133E0220C0B
:1024C000331C3A95E1F7C60143E0880F991F4A95FE
:1024D000E1F79A8389834EC0F501808190E0062E52
:1024E00002C0959587950A94E2F780FF30C0ED8190
:1024F000FE813081CB01880F991FF40102C0EE0FDD
:10250000FF1F8A95E2F72E2F3E2BED81FE8130834F
:102510003081C401002E02C0880F991F0A94E2F78F
:10252000382B3083FA019081922B90839081982BE5
:102530009083EB81FC819081922B90839081982BEA
:1025400090839C91922B9C939C91982B9C936F5F72
:102550007F4F0E5F1F4F6430710509F0BDCF8701BB
:10256000730132010894A11CB11C0E5F1F4F09308A
:10257000110539F1C801019721E0422E512C60E08C
:1025800070E09101280F391F20553E4FA101400FE7
:10259000511F40555E4FA981BA81A80FB91FA055A0
:1025A000BE4FBC83AB83A981BA81A00FB11FA055D8
:1025B000BE4FC2012301370178013E832D838C0178
:1025C0008BCFE2E0F0E0EE0EFF1ECE0EDF1E84E0C9
:1025D00090E0680E791E98E0E916F10409F064CFE6
:1025E00084E00E94C83E26960FB6F894DEBF0FBE68
:1025F000CDBFDF91CF911F910F91FF90EF90DF90B2
:10260000CF90BF90AF909F908F907F906F905F9092
:102610004F903F902F9008952F923F924F925F924C
:102620006F927F928F929F92AF92BF92DF92EF92C2
:10263000FF920F931F93CF93DF93CDB7DEB76097D1
:102640000FB6F894DEBF0FBECDBF0E949D3D198628
:102650001A861B861C861D861E861F86188A8FE09A
:1026600089838A838B838C8389E08D838E838F8398
:1026700088878E010F5F1F4FC8010E943412E0ED62
:102680008E2EE7E09E2EF4E06F2E712C2801A6E03E
:102690002A2E312C0E947254B3010E94F653D82E78
:1026A0000E947254B3010E94F653E82E0E947254A5
:1026B000B3010E94F653F82EEE2DF0E0EE0FFF1F4F
:1026C000EE0FFF1FED0DF11DE40DF51D808190E073
:1026D0000F2C02C0959587950A94E2F780FF9DC064
:1026E0000E947254B1010E94F6538230910509F4A0
:1026F00051C0833091053CF4009709F18130910578
:1027000009F08BC032C08430910509F46CC084306C
:1027100091050CF454C08530910509F07EC078C055
:10272000C8014D2D2F2D0E9410110894A11CB11C21
:10273000882309F072C0C8010E94341202C0AA2482
:10274000BB246E2D6A0D633058F367C0C8014D2D50
:102750002F2D0E9447110894A11CB11C882309F059
:102760005CC0C8010E94341202C0AA24BB246E2D92
:102770006A1961F752C0C8016E2D2F2D0E947E117B
:102780000894A11CB11C882309F047C0C8010E940D
:10279000341202C0AA24BB244D2D4A0D433058F3F5
:1027A0003CC0C8016E2D2F2D0E94AA110894A11CB7
:1027B000B11C882391F5C8010E94341202C0AA24DA
:1027C000BB244D2D4A1969F728C0C8016E2D4D2D27
:1027D0000E94D6110894A11CB11C8823F1F4C801F1
:1027E0000E94341202C0AA24BB242F2D2A0D2330AC
:1027F00060F313C0C8016E2D4D2D0E940512089480
:10280000A11CB11C882349F4C8010E94341202C0E3
:10281000AA24BB242F2D2A1969F70894810891084E
:102820008114910409F036CF60960FB6F894DEBF9C
:102830000FBECDBFDF91CF911F910F91FF90EF9011
:10284000DF90BF90AF909F908F907F906F905F9040
:102850004F903F902F900895CF930E949D3D80E030
:1028600090E02FEFFC01E055FE4F2083208701967A
:1028700088309105B9F78FE00E94C83EC6E082E03B
:1028800062E043E023E00E94D74F82E066E043E04D
:1028900027E00E94D74F86E062E047E023E00E94F5
:1028A000D74F86E066E047E027E00E94D74F8FE0F1
:1028B0000E94C83EC15019F7C4E080E060E041E0EA
:1028C00021E00E94D74F80E064E041E025E00E94D3
:1028D000D74F84E060E045E021E00E94D74F84E0DC
:1028E00064E045E025E00E94D74F8FE00E94C83E9B
:1028F000C15019F7C2E082E060E043E021E00E94AD
:10290000D74F86E060E047E021E00E94D74F82E0A9
:1029100064E043E025E00E94D74F86E064E047E0B2
:1029200025E00E94D74F8FE00E94C83EC15019F7A2
:10293000C4E086E062E047E023E00E9441508FE07F
:102940000E94C83EC150A9F784E060E045E021E064
:102950000E9441508FE00E94C83E84E060E045E064
:1029600021E00E9441508FE00E94C83EC6E082E014
:1029700064E043E025E00E94A54F8FE00E94C83E3E
:10298000C150A9F782E060E043E021E00E9441509D
:102990008FE00E94C83E82E060E043E021E00E94B8
:1029A00041508FE00E94C83EC6E080E062E041E016
:1029B00023E00E94A54F8FE00E94C83EC150A9F7B6
:1029C000C4E080E062E041E023E00E94D74F8FE066
:1029D0000E94C83EC150A9F782E064E043E025E0D0
:1029E0000E94AD508FE00E94C83E82E064E043E068
:1029F00025E00E94AD508FE00E94C83E86E90E940B
:102A0000C83ECF910895CF930E949D3D80E090E015
:102A10002FE0FC01C3E0EE0FFF1FCA95E1F7E05580
:102A2000FE4F2083218322832383019684309105E6
:102A300081F784E090E02FEFFC01B3E0EE0FFF1F81
:102A4000BA95E1F7E055FE4F24832583268327833B
:102A500001968830910581F785E00E94C83EC4E068
:102A600084E060E047E023E00E94415085E00E945E
:102A7000C83EC150A9F7C4E080E060E043E023E035
:102A80000E94A54F85E00E94C83EC150A9F7C4E04E
:102A900080E064E043E027E00E94D74F85E00E9499
:102AA000C83EC150A9F7C4E084E064E047E027E0F5
:102AB0000E94415085E00E94C83EC150A9F7C4E081
:102AC00080E060E043E023E00E94045185E00E9442
:102AD000C83EC150A9F7C4E084E060E047E023E0CD
:102AE0000E94BE4F85E00E94C83EC150A9F7C4E0D5
:102AF00084E060E047E023E00E94A54F85E00E946B
:102B0000C83EC150A9F7C4E084E064E047E027E094
:102B10000E94D74F85E00E94C83EC150A9F7C4E08B
:102B200080E060E043E023E00E94AD5085E00E9439
:102B3000C83EC150A9F7C4E084E060E047E023E06C
:102B40000E94D74F85E00E94C83EC150A9F7C4E05B
:102B500080E064E043E027E00E94415085E00E946D
:102B6000C83EC150A9F7C4E080E060E043E023E044
:102B70000E94BE4F85E00E94C83EC150A9F7CF9188
:102B80000895CF93DF930E949D3D81E090E021E87E
:102B9000FC01D3E0EE0FFF1FDA95E1F7E055FE4FA1
:102BA0002083278301968730910591F781E090E09B
:102BB00021E8C0EBD1E0FC01EC0FFD1F208320AF2A
:102BC000019687309105A9F78FEF8093B00188AF08
:102BD0008F838093EF018EE00E94C83E82E4898B50
:102BE0008E8B898F8E8F89A38EA389A78EA78A87C4
:102BF0008AAB8B878BAB8C878CAB8D878DAB8EE74D
:102C0000898789AB8E878EAB8EE00E94C83E84E2B6
:102C10008A8F8D8F8AA38DA38B8B8BA78C8B8CA790
:102C20008CE38A8B8AA78D8B8DA78EE00E94C83E8D
:102C300088E18B8F8BA38C8F8CA38CE80E94C83E7D
:102C4000DF91CF9108958F929F92AF92BF92CF92D2
:102C5000DF92EF92FF920F931F93CF93DF93D1E018
:102C600000E010E0C8E177E0E72EF12CE3E08E2EE3
:102C7000912CF1E0CF2ED12C53C0B701681B790BFA
:102C8000FD01E60FF71FE055FE4FC083FD01E80F81
:102C9000F91FE055FE4FC083FA01E60FF71FE0551C
:102CA000FE4FC083FA01E80FF91FE055FE4FC083C5
:102CB0002F5F0FC023E0DC0143E0AA0FBB1F4A9542
:102CC000E1F7A701481B590B63E0440F551F6A95B4
:102CD000E1F7822F90E0A816B9067CF63F5F832FBC
:102CE00090E0A816B90634F78D2F0E94C83EC401A3
:102CF000801B910B960102C0220F331F8A95E2F7C9
:102D0000C8010496A60102C0440F551F8A95E2F738
:102D1000CA01822BC82B0F5F1F4FDE5FDB3039F0FB
:102D200033E0F3E0AF2EB12CA00EB11ED8CF81E07E
:102D30000E94C83ED1E004E010E077E0E72EF12CDD
:102D4000E1E0CE2ED12CC701801B910B960102C071
:102D5000220F331F8A95E2F7C601002E02C0880FAA
:102D6000991F0A94E2F7822B8095C82333E058011B
:102D70000894A108B10832C0B701681B790BFD01A6
:102D8000E60FF71FE055FE4FC083FD01E80FF91F66
:102D9000E055FE4FC083FA01E60FF71FE055FE4FE6
:102DA000C083FA01E80FF91FE055FE4FC0832F5F83
:102DB0000FC023E0DC0143E0AA0FBB1F4A95E1F7F7
:102DC000A701481B590B63E0440F551F6A95E1F7B3
:102DD000822F90E0A816B9067CF63F5F832F90E023
:102DE000A816B90634F78D2F0E94C83E0F5F1F4FFB
:102DF000DE5FDB3009F0A7CF81E00E94C83EDF91A3
:102E0000CF911F910F91FF90EF90DF90CF90BF90E7
:102E1000AF909F908F9008951F93CF93DF930E9460
:102E2000593E84E00E94C83EC1E0D0E01FEF17C0C9
:102E3000F901E80FF91FE055FE4F1082FA01E80F83
:102E4000F91FE055FE4F108301968830910581F7F8
:102E500084E00E94C83E2196C830D10589F080E008
:102E600090E09E0121503040A3E0220F331FAA952D
:102E7000E1F7AE01B3E0440F551FBA95E1F7D8CFA3
:102E8000C7E080E060E047E027E00E94415084E036
:102E90000E94C83EC150A9F7DF91CF911F910895BC
:102EA000FC01799629E1DF0112973C913293215080
:102EB0002130C9F7FC0110820895EF92FF920F9321
:102EC0001F93CF93DF930F92CDB7DEB78B0189832A
:102ED0000E949D3DF89418B8898161E00E940F011D
:102EE00020E030E061E070E084E0E82EF12CE00EBC
:102EF000F11E15C0FA01E80FF91FE055FE4FE08101
:102F0000E0FF03C0EC91E12BEC9301961197863022
:102F1000910581F72F5F3F4F2830310591F0CB01AC
:102F2000022E02C0880F991F0A94E2F7182FD701CA
:102F300081E090E0A90103E0440F551F0A95E1F7F5
:102F4000D9CF0E949D3D78940F90DF91CF911F9132
:102F50000F91FF90EF900895EF92FF920F931F93C0
:102F6000CF93DF93EC010E949D3D40E050E007E0ED
:102F700010E0E1E0EE2EF12C26C015968C9115970D
:102F800090E0022E02C0959587950A94E2F780FFA3
:102F90000BC0F90173E0EE0FFF1F7A95E1F7E055E2
:102FA000FE4F8781862B87832F5F3F4F2830310567
:102FB00021F74F5F5F4F4730510529F4DE011C9622
:102FC00046E050E030C0C801841B950B970102C059
:102FD000220F331F8A95E2F7622F20E030E0DE01F6
:102FE000A40FB51FCACF8C9190E0022E02C0959518
:102FF00087950A94E2F780FF0DC0F90163E0EE0FB8
:10300000FF1F6A95E1F7E40FF51FE055FE4F808141
:10301000816080832F5F3F4F2830310521F7119663
:103020004150504029F120E030E0DDCF51968C91A5
:10303000519790E0022E02C0959587950A94E2F789
:1030400080FF0BC0F90193E0EE0FFF1F9A95E1F7A7
:10305000E055FE4F9081902B90832F5F3F4F28309B
:10306000310521F74F5F5F4F4830510529F412C0F9
:1030700041E050E061E070E0CB01042E02C0880F17
:10308000991F0A94E2F7082F20E030E0DE01A40F38
:10309000B51FCCCF85E00E94C83EDF91CF911F9134
:1030A0000F91FF90EF900895FF920F931F93CF938E
:1030B000DF93CDB7DEB769970FB6F894DEBF0FBECA
:1030C000CDBFFE01319629E111922150E9F78C0123
:1030D0000E5F1F4F11C0BE016F5F7F4F0E945D17D3
:1030E000F6E0FF2ECE0101960E94AC17CE010196AC
:1030F0000E945017FA94B1F7F80181918F0188234B
:1031000051F702E1CE0101960E94AC17CE01019663
:103110000E9450170150B1F769960FB6F894DEBFC0
:103120000FBECDBFDF91CF911F910F91FF900895FA
:103130000E949D3D0E949D3D83E362E00E940F013D
:103140000E94FE4E0E94FE4E84E662E00E940F0145
:103150000E94FE4E88E00E946C3F0895EF92FF921D
:103160000F931F93CF93DF938C01A1E0EA2EF12CF4
:1031700019C0C7E0D0E00E949D3DB7010C2E02C0EF
:10318000660F771F0A94E2F7F80180810E940F0111
:1031900083E00E94C83E2197FFEFCF3FDF0759F73A
:1031A0000F5F1F4FF8018081882319F7DF91CF91BE
:1031B0001F910F91FF90EF900895EF92FF920F9360
:1031C0001F93CF93DF930E949D3D86E00E94C83EEF
:1031D000C0E0D0E001E010E02091B001C8010C2E69
:1031E00002C0880F991F0A94E2F7282B2093B001A0
:1031F000FE0133E0EE0FFF1F3A95E1F7E055FE4F79
:10320000808181608083FE01E055FE4F8081816076
:10321000808386E00E94C83E2196C830D105E1F641
:10322000C1E0D0E001E010E02091E801C8010C2EDF
:1032300002C0880F991F0A94E2F7282B2093E80117
:10324000DE01A055BE4FD8969C91D8979160D89634
:103250009C93D897FE0123E0EE0FFF1F2A95E1F71C
:10326000E055FE4F9081906890839C9190689C936C
:103270009091B701982B9093B701878181608783E4
:1032800086E00E94C83E2196C830D10569F6C1E0AB
:10329000D0E091E0E92EF12C00EB11E0FE01E00F0F
:1032A000F11F80AD806880AF2091EF01C7010C2E27
:1032B00002C0880F991F0A94E2F7282B2093EF0190
:1032C000FE0183E0EE0FFF1F8A95E1F7E00FF11F8B
:1032D00087818068878386E00E94C83E2196C83037
:1032E000D105D1F684E10E94C83E0E949D3D8EE743
:1032F000F8018187868781AB86AB82E090E022E48B
:10330000FC01E055FE4F208720ABFC01B3E0EE0F3F
:10331000FF1FBA95E1F7E055FE4F21832683019602
:103320008630910569F78EE10E94C83E88E00E94D0
:103330006C3FDF91CF911F910F91FF90EF90089517
:10334000DF92EF92FF920F931F93CF93DF9311E0E1
:10335000C1E0D0E02CC00E949D3DFF240E94725429
:10336000E82E0E947254D82E0E947254ED2DE77000
:10337000F0E09E2D977087709E0102C0220F331FD0
:103380008A95E2F743E0EE0FFF1F4A95E1F7E90F58
:10339000F11DE055FE4F2083F394F116F8F284E01E
:1033A0000E94C83E0150B9F61F5F1E3111F009E0BE
:1033B000D2CFDF91CF911F910F91FF90EF90DF90CF
:1033C0000895CF93DF930E949D3DDAE0CFEF80E038
:1033D00060E047E027E00E9404518091CF01C09354
:1033E000CF0183E00E94C83E80E060E047E027E034
:1033F0000E9404518091C701C093C70183E00E94DD
:10340000C83E80E060E047E027E00E9404518091E0
:10341000BF01C093BF0183E00E94C83E80E060E02E
:1034200047E027E00E9404518091B701C093B701A3
:1034300083E00E94C83E80E060E047E027E00E9411
:1034400004518091B701C093B70183E00E94C83E48
:1034500080E060E047E027E00E9404518091BF01D6
:10346000C093BF0183E00E94C83E80E060E047E077
:1034700027E00E9404518091C701C093C70183E0F7
:103480000E94C83E80E060E047E027E00E940451CF
:103490008091CF01C093CF0183E00E94C83E80E0BD
:1034A00060E047E027E00E9404518091D701C0937B
:1034B000D70183E00E94C83E80E060E047E027E05B
:1034C0000E9404518091DF01C093DF0183E00E94DC
:1034D000C83E80E060E047E027E00E940451809110
:1034E000E701C093E70183E00E94C83E80E060E00E
:1034F00047E027E00E9404518091EF01C093EF0163
:1035000083E00E94C83E80E060E047E027E00E9440
:1035100004518091EF01C093EF0183E00E94C83E07
:1035200080E060E047E027E00E9404518091E701DD
:10353000C093E70183E00E94C83E80E060E047E07E
:1035400027E00E9404518091DF01C093DF0183E0F6
:103550000E94C83E80E060E047E027E00E940451FE
:103560008091D701C093D70183E00E94C83ED1501B
:1035700009F02DCFDF91CF9108958F929F92AF9256
:10358000BF92CF92DF92EF92FF920F931F93CF9350
:10359000DF93F894BAE0CB2EC5E08C2E912C18E185
:1035A000D4E2DD2E02E486E6B82E91E8F92EEE2470
:1035B000E3940E949D3D84E10E94C83E0E947254A3
:1035C000B4010E94F653D82F0E94725468E070E054
:1035D0000E94F653C82FCF5FD43008F063C10E9419
:1035E0009D3D80E090E020E80AC0FC01A3E0EE0FE2
:1035F000FF1FAA95E1F7E055FE4F208301968C1737
:10360000A0F3AA2403C00E94FE4EA394AD16D8F3E3
:1036100084E00E94DA3E0E949D3D80E090E030E42C
:1036200020E80BC0FC0173E0EE0FFF1F7A95E1F775
:10363000E055FE4F3083218301968C1798F3AA241E
:1036400003C00E94FE4EA394AD16D8F384E00E94FE
:10365000DA3E0E949D3D80E090E020E230EC0CC01C
:10366000FC0163E0EE0FFF1F6A95E1F7E055FE4FA6
:1036700020832183328301968C1790F3AA2403C000
:103680000E94FE4EA394AD16D8F384E00E94DA3E69
:103690000E949D3D80E090E020E140E230EC0DC0D2
:1036A000FC0153E0EE0FFF1F5A95E1F7E055FE4F86
:1036B000208321834283338301968C1788F3AA24C5
:1036C00003C00E94FE4EA394AD16D8F384E00E947E
:1036D000DA3E0E949D3D80E090E028E050E140E32A
:1036E00030EC0EC0FC01B3E0EE0FFF1FBA95E1F71E
:1036F000E055FE4F20832183528343833483019618
:103700008C1780F3AA2403C00E94FE4EA394AD162A
:10371000D8F384E00E94DA3E0E949D3D80E090E074
:1037200024E058E040E130EE0FC0FC01A3E0EE0FD2
:10373000FF1FAA95E1F7E055FE4F208321832283E6
:1037400053834483358301968C1778F3AA2403C0EE
:103750000E94FE4EA394AD16D8F384E00E94DA3E98
:103760000E949D3D80E090E022E064E058E040E16E
:1037700030EE10C0FC0173E0EE0FFF1F7A95E1F709
:10378000E055FE4F20832183228363835483458346
:10379000368301968C1770F3AA2403C00E94FE4E54
:1037A000A394AD16D8F384E00E94DA3E0E949D3DBA
:1037B00080E090E022E044E030EE11C0FC0163E0E4
:1037C000EE0FFF1F6A95E1F7E055FE4FE082E182C0
:1037D000E2822383248345831683378301968C17E3
:1037E00068F3AA2403C00E94FE4EA394AD16D8F33A
:1037F00084E00E94DA3E0E949D3D80E090E042E03D
:1038000034E028E00DC0FC0153E0EE0FFF1F5A9595
:10381000E1F7E055FE4FE482458336832783019626
:103820008C1788F3AA2403C00E94FE4EA394AD1601
:10383000D8F384E00E94DA3E0E949D3D80E090E053
:1038400022E00BC0FC0133E0EE0FFF1F3A95E1F7D9
:10385000E055FE4FE682278301968C1798F3AA2441
:1038600003C00E94FE4EA394AD16D8F384E00E94DC
:10387000DA3E0E949D3D80E090E00AC0FC0123E01A
:10388000EE0FFF1F2A95E1F7E055FE4FE782019604
:103890008C17A0F3C0E003C00E94FE4ECF5FCD178F
:1038A000D8F389C00E949D3D80E090E00BC0FC01F0
:1038B000D3E0EE0FFF1FDA95E1F7E055FE4F1383DB
:1038C000148301968C1798F384E00E94DA3E0E94DC
:1038D0009D3D80E090E00DC0FC01B3E0EE0FFF1FC6
:1038E000BA95E1F7E055FE4F1283D382D482158357
:1038F00001968C1788F384E00E94DA3E0E949D3D79
:1039000080E090E00FC0FC01A3E0EE0FFF1FAA953E
:10391000E1F7E055FE4F1183D28203830483D58201
:10392000168301968C1778F384E00E94DA3E0E9499
:103930009D3D80E090E011C0FC0173E0EE0FFF1FA1
:103940007A95E1F7E055FE4F1083B1820283F3824E
:10395000F4820583B682178301968C1768F384E09E
:103960000E94DA3E0E949D3D80E090E00DC0FC0187
:1039700063E0EE0FFF1F6A95E1F7E055FE4F00830D
:10398000F182F682078301968C1788F384E00E9407
:10399000DA3E0E949D3D80E090E00BC0FC0153E0C8
:1039A000EE0FFF1F5A95E1F7E055FE4FF082F782C8
:1039B00001968C1798F384E00E94DA3ECA9409F0CD
:1039C000F8CD7894DF91CF911F910F91FF90EF90F8
:1039D000DF90CF90BF90AF909F908F900895CF933E
:1039E000DF93C8E0DFEF80E060E047E027E00E947F
:1039F000AD5080E090E0FC0133E0EE0FFF1F3A9500
:103A0000E1F7E055FE4F2081D08301968830910583
:103A100091F785E00E94C83EC15029F785E00E94D9
:103A2000C83EC7E0D0E017C0FC0123E0EE0FFF1F47
:103A30002A95E1F7EC0FFD1FE055FE4F108201962D
:103A40008830910589F785E00E94C83E21978FEF65
:103A5000CF3FD80719F080E090E0E6CFDF91CF911B
:103A600008951F93CF93DF93C7E0D0E01FEF9E012F
:103A700053E0220F331F5A95E1F7F901E055FE4F4D
:103A8000808110838781178381E090E0F901E80F3E
:103A9000F91FE055FE4F4081416840830196873011
:103AA0009105A1F785E00E94C83E21978FEFCF3F97
:103AB000D807E9F6C7E0D0E013C0FC01E20FF31F1E
:103AC000E055FE4F10822F5F3F4F28303105A9F798
:103AD00085E00E94C83E21978FEFCF3FD80749F07D
:103AE00020E030E0CE0143E0880F991F4A95E1F7CE
:103AF000E4CFDF91CF911F91089570C0F89418B86A
:103B00002FE53AEE40E0215030404040E1F700C060
:103B100000002FE53AEE40E0215030404040E1F710
:103B200000C000002FE53AEE40E021503040404018
:103B3000E1F700C000002FE53AEE40E021503040B0
:103B40004040E1F700C000002FE53AEE40E0215090
:103B500030404040E1F700C000002FE53AEE40E081
:103B6000215030404040E1F700C0000078942FE53C
:103B70003AEE40E0215030404040E1F700C0000004
:103B80002FE53AEE40E0215030404040E1F700C0E0
:103B900000002FE53AEE40E0215030404040E1F790
:103BA00000C000002FE53AEE40E021503040404098
:103BB000E1F700C000002FE53AEE40E02150304030
:103BC0004040E1F700C000002FE53AEE40E0215010
:103BD00030404040E1F700C000008150882309F0E8
:103BE0008DCF0895CF93DF93EC016BC00E949D3D74
:103BF000F89418B8899160E10E940F010E94FE4E6E
:103C00000E94FE4E0E94FE4E81E060E046E027E00A
:103C10000E94045181E060E046E027E00E940451E8
:103C200081E060E046E027E00E940451789485E05E
:103C30000E94C83E81E060E046E027E00E94AD506F
:103C400085E00E94C83E81E060E046E027E00E94F7
:103C5000AD5085E00E94C83E81E060E046E027E08C
:103C60000E94AD5085E00E94C83E81E00E946C3FFA
:103C700080E060E047E027E00E94BE4F85E00E94C0
:103C8000C83E80E060E047E027E00E94BE4F85E04C
:103C90000E94C83E80E060E047E027E00E94BE4FFF
:103CA00085E00E94C83E80E060E047E027E00E9497
:103CB000BE4F85E00E94C83E85E00E947D1D0E94A7
:103CC00023168881882309F091CF0E9423160E9431
:103CD0002316DF91CF910895CF93DF93EB0133E06B
:103CE00020EC482F50E0BA01E3E0660F771FEA9519
:103CF000E1F741505040F3E0440F551FFA95E1F7CA
:103D0000E881FF27E7FDF095DB01AE0FBF1FA0554F
:103D1000BE4F8C91822369F1E40FF51FE055FE4FF1
:103D20008081822331F18C91922F909589238C93FD
:103D3000E881FF27E7FDF095E40FF51FE055FE4F02
:103D4000808189238083E881FF27E7FDF095E60FD6
:103D5000F71FEE54FE4F8081822B8083E881FF277E
:103D6000E7FDF095E40FF51FEE54FE4F8081822BA6
:103D700080838881992787FD90950396FB01E80F42
:103D8000F91FE055FE4FA081A22371F1840F951F0A
:103D900080559E4FDC018C91822331F18081922FDE
:103DA000909589238083E881FF27E7FDF095E40F54
:103DB000F51FED54FE4F808189238083E881FF2722
:103DC000E7FDF095E60FF71FEB54FE4F8081822B45
:103DD0008083E881FF27E7FDF095E40FF51FEB54A2
:103DE000FE4F8081822B8083269526952695315023
:103DF00009F086CF88818F5F8883DF91CF91089506
:103E0000CF93DF93DB0133E020EC482F50E0BA0181
:103E1000C3E0660F771FCA95E1F741505040D3E0E9
:103E2000440F551FDA95E1F78C91992787FD9095FE
:103E30000196FB01E80FF91FE055FE4FC081C22338
:103E400071F1840F951F80559E4FEC01888182236C
:103E500031F18081922F909589238083EC91FF2707
:103E6000E7FDF095E40FF51FEF54FE4F80818923A5
:103E70008083EC91FF27E7FDF095E60FF71FE155F2
:103E8000FE4F8081822B8083EC91FF27E7FDF09528
:103E9000E40FF51FE155FE4F8081822B80838C91CA
:103EA000992787FD90950496FB01E80FF91FE055CF
:103EB000FE4FC081C22371F1840F951F80559E4F24
:103EC000EC018881822331F18081922F90958923A2
:103ED0008083EC91FF27E7FDF095E40FF51FEC548C
:103EE000FE4F808189238083EC91FF27E7FDF095C9
:103EF000E60FF71FEE54FE4F8081822B8083EC91FA
:103F0000FF27E7FDF095E40FF51FEE54FE4F80818B
:103F1000822B8083269526952695315009F084CFF3
:103F20008C9181508C93DF91CF9108950F931F93C3
:103F3000CF93DF93DC0193E080EC772767FD7095EA
:103F40009B012F5F3F4FAB014D5F5F4F8B010C5FBC
:103F50001F4FEC91F0E0C3E0EE0FFF1FCA95E1F7B1
:103F6000E60FF71FE055FE4FC081C82389F1D081CD
:103F7000C82FC095DC23D083EC91F0E0D3E0EE0FA6
:103F8000FF1FDA95E1F7E20FF31FE055FE4FD081F6
:103F9000DC23D083EC91F0E03297C3E0EE0FFF1FFB
:103FA000CA95E1F7E60FF71FE055FE4FC081C82B19
:103FB000C083EC91F0E03297D3E0EE0FFF1FDA956B
:103FC000E1F7E20FF31FE055FE4FC081C82BC0831D
:103FD000EC91F0E0C3E0EE0FFF1FCA95E1F7E40FAC
:103FE000F51FE055FE4FC081C82389F1D081C82F4D
:103FF000C095DC23D083EC91F0E0D3E0EE0FFF1FFF
:10400000DA95E1F7E00FF11FE055FE4FD081DC2398
:10401000D083EC91F0E03297C3E0EE0FFF1FCA951A
:10402000E1F7E40FF51FE055FE4FC081C82BC083B8
:10403000EC91F0E03297D3E0EE0FFF1FDA95E1F755
:10404000E00FF11FE055FE4FC081C82BC08386955D
:1040500086958695915009F07CCF8C9181508C93F8
:10406000DF91CF911F910F910895CF92DF92EF9240
:10407000FF920F931F93CF93DF938C01EB016A01A3
:104080007901DC014C91473008F00FC1642F6F5F5C
:104090006C9370E02881A22FA295AF70B0E0FB0175
:1040A00083E0EE0FFF1F8A95E1F7EA0FFB1FE05553
:1040B000FE4F808130E02F70307090E0022E02C001
:1040C000959587950A94E2F780FD4BC0BEC0888124
:1040D000982F92959F709F0153E0220F331F5A959E
:1040E000E1F7F901E90FF11DEF54FE4F508190E027
:1040F0008F7090700197DB0102C0AA0FBB1F8A95D9
:10410000E2F75A2B50838881982F92959F70F9017E
:10411000E90FF11DE055FE4F508190E08F709070D7
:104120000197DB0102C0AA0FBB1F8A95E2F75A2B49
:1041300050838881982F92959F70F901E90FF11DA6
:10414000E155FE4F208190E08F7090700197DB0168
:1041500002C0AA0FBB1F8A95E2F72A2B20834F5F6C
:1041600002C067E070E0E42FF0E0D8018C9190E0AD
:1041700001968E179F071CF0483009F0A8CF84E005
:104180000E94DA3EF8012081215067E070E04FC0C4
:104190008881982F92959F70AF0133E0440F551F8F
:1041A0003A95E1F7FA01E90FF11DEF54FE4F308126
:1041B00090E08F7090700197DB0102C0AA0FBB1FC7
:1041C0008A95E2F7CD018095832380838881982F9B
:1041D00092959F70FA01E90FF11DE055FE4F308175
:1041E00090E08F7090700197DB0102C0AA0FBB1F97
:1041F0008A95E2F7CD018095832380838881982F6B
:1042000092959F70FA01E90FF11DE155FE4F308143
:1042100090E08F7090700197AB0102C0440F551F62
:104220008A95E2F7CA018095832380832F5FE22F6E
:10423000F0E0D8018C9190E001968E179F070CF466
:1042400050C0283008F4A4CF4CC0FB01319783E064
:10425000EE0FFF1F8A95E1F7EA0FFB1FE055FE4FB7
:10426000308141E050E0CA0102C0880F991F2A95B1
:10427000E2F7809583238083D801EC91F0E0988168
:10428000892F82958F7023E0EE0FFF1F2A95E1F7AB
:10429000E80FF11DE055FE4F80819F7002C0440F72
:1042A000551F9A95E2F7842B18C04730B9F48881DE
:1042B000E82FE295EF70F0E0E055FE4F20AD382F8B
:1042C0003F7081E090E002C0880F991F3A95E2F7B5
:1042D0008095822380AF88E0F801808384E00E948B
:1042E000DA3E80910C0166E00E94EA53992329F599
:1042F000D7018C91833064F490916E01992331F44D
:10430000F6018081B7010E946C1E0BC018164CF498
:1043100080916E01813029F4D6018C91B7010E9401
:10432000001FF7018081833021F481E080936E01CA
:1043300004C0882311F410926E01C0910C018C2FDF
:104340008F7749F4D6018C91833028F0C601F701AC
:1043500060810E94961FCF3F21F0CF5FC0930C0178
:1043600002C010920C01DF91CF911F910F91FF902D
:10437000EF90DF90CF900895AF92BF92CF92DF92EF
:10438000FF920F931F93CF93DF9300D000D0CDB750
:10439000DEB7F8940E949D3D87E08C8381E08B839B
:1043A0001A8289E089838091B3018C618093B30183
:1043B0008091B4018C618093B4018091B5018C61CE
:1043C0008093B5018091BC0188608093BC0180918D
:1043D000E1018B6D8093E1018091E9018B6D809308
:1043E000E9018091E2018B6D8093E2018091EA0105
:1043F0008B6D8093EA018091E4018B6D8093E401E1
:104400008091EC018B6D8093EC018091E5018B6DC7
:104410008093E5018091ED018B6D8093ED0113E4B4
:1044200094E0A92EB12C22E0F22E31E0C32ED12C43
:1044300084C004E10E947254B5010E94F653813099
:104440009105E1F0823091051CF4009741F042C0E3
:104450008230910511F183309105E1F52DC0812F56
:1044600090E0807F907080369105A4F580E060E058
:1044700047E021E00E94AD50105F2CC0812F90E0FA
:10448000807F9070813191052CF180E060E047E001
:1044900021E00E94045110511DC0812F90E08F70C7
:1044A000907082309105B4F080E060E041E027E058
:1044B0000E94BE4F11500EC0812F90E08F709070FF
:1044C000863091053CF480E060E041E027E00E9406
:1044D000A54F1F5FCE010196BE016E5F7F4FAE01FB
:1044E0004C5F5F4F9E012D5F3F4F0E943520CE01F4
:1044F0000196BE016E5F7F4FAE014C5F5F4F9E0124
:104500002D5F3F4F0E943520015009F093CF1A8351
:10451000F982E12FE295EF70F0E0E055FE4F20893F
:10452000812F8F70A60102C0440F551F8A95E2F7B4
:10453000242B208B84E00E94DA3E8C81833008F0AB
:1045400078CF78940E94231680E091E00E9454185E
:104550000E949D3D0F900F900F900F90DF91CF9193
:104560001F910F91FF90DF90CF90BF90AF90089573
:104570008830910558F477FD09C06830710534F42E
:1045800057FD06C081E0483051051CF080E00895D9
:1045900080E00895EF92FF921F93CF93DF93182F3F
:1045A0007B01EA010E94B8228823A1F083E0CC0FAE
:1045B000DD1F8A95E1F7CE0DDF1DC059DE4F288142
:1045C00081E090E002C0880F991F1A95E2F780956C
:1045D00082238883DF91CF911F91FF90EF90089500
:1045E000EF92FF921F93CF93DF93182F7B01EA0185
:1045F0000E94B8228823A1F093E0CC0FDD1F9A958A
:10460000E1F7CE0DDF1DC055DE4F288181E090E03F
:1046100002C0880F991F1A95E2F78095822388833C
:10462000DF91CF911F91FF90EF900895EF92FF924D
:104630001F93CF93DF93182F7B01EA010E94B822CA
:10464000882399F023E0CC0FDD1F2A95E1F7CE0DEA
:10465000DF1DC059DE4F288181E090E002C0880F45
:10466000991F1A95E2F7282B2883DF91CF911F918C
:10467000FF90EF900895EF92FF921F93CF93DF93F7
:10468000182F7B01EA010E94B822882399F033E0B9
:10469000CC0FDD1F3A95E1F7CE0DDF1DC055DE4F83
:1046A000288181E090E002C0880F991F1A95E2F7F7
:1046B000282B2883DF91CF911F91FF90EF900895D1
:1046C000EF92FF921F93CF93DF93182F7B01EA01A4
:1046D0000E94B822882391F043E0CC0FDD1F4A9559
:1046E000E1F7CE0DDF1DC055DE4F888190E002C09E
:1046F000959587951A95E2F7817001C080E0DF916A
:10470000CF911F91FF90EF9008952130310519F45A
:104710000E943B2308950E94F0220895EF92FF9299
:104720001F93CF93DF93182F7B01EA010E94B822D9
:10473000882399F053E0CC0FDD1F5A95E1F7CE0D99
:10474000DF1DC055DE4F288181E090E002C0880F58
:10475000991F1A95E2F728272883DF91CF911F919F
:10476000FF90EF900895681779072CF4F82FE92F40
:10477000CB016F2F7E2FFA0191838083F901718322
:10478000608308958830910588F4FC0163E0EE0FA2
:10479000FF1F6A95E1F7E055FE4F8FEF808381831D
:1047A0008283838384838583868387830895883087
:1047B000910580F4FC0173E0EE0FFF1F7A95E1F79D
:1047C000E055FE4F108211821282138214821582EC
:1047D0001682178208958830910530F521E030E087
:1047E00002C0220F331F8A95E2F7722F40E050E09B
:1047F00012C0FC01E20FF31FE055FE4F6081672BF2
:1048000060832F5F3F4F2830310599F74F5F5F4F2F
:104810004830510549F020E030E0CA01E3E0880F5C
:10482000991FEA95E1F7E5CF08958830910538F5AD
:1048300021E030E002C0220F331F8A95E2F7722F89
:10484000709540E050E012C0FC01E20FF31FE0550C
:10485000FE4F6081672360832F5F3F4F2830310513
:1048600099F74F5F5F4F4830510549F020E030E045
:10487000CA01F3E0880F991FFA95E1F7E5CF089593
:104880008830910560F4FC01E055FE4F8FEF808386
:104890008087808B808F80A380A780AB80AF0895B6
:1048A0008830910558F4FC01E055FE4F10821086C7
:1048B000108A108E10A210A610AA10AE0895982F7C
:1048C000862F993741F09A3751F0983759F490E094
:1048D0000E94EB23089590E00E944024089590E008
:1048E0000E94C2230895982F862F993741F09A3756
:1048F00051F0983759F490E00E941524089590E003
:104900000E945024089590E00E94D723089520E04B
:1049100030E0F901A3E0EE0FFF1FAA95E1F7E055A3
:10492000FE4F808381838283838384838583868310
:1049300087832F5F3F4F2830310559F7089520E0D6
:1049400030E0F901B3E0EE0FFF1FBA95E1F7E0594F
:10495000FE4F8083818382838383848385838683E0
:1049600087832F5F3F4F2830310559F708956F5FD8
:104970007F4F2FEF30E0A90102C0440F551F6A9509
:10498000E2F7BA01609502C0220F331F8A95E2F761
:10499000862F822308956F927F928F929F92AF927B
:1049A000BF92CF92DF92EF92FF920F931F93CF931C
:1049B000DF934C015B013A016901281739072CF498
:1049C000982F892D4901C92ED82E0A151B052CF4C4
:1049D0009A2D8B2D5801092F182FE614F7042CF46B
:1049E000962D872D3701E92EF82EC401B6010E94BD
:1049F000B724282FC301C3E0880F991FCA95E1F798
:104A0000FC01EA0DFB1DE055FE4F2083FC01E00F89
:104A1000F11FE055FE4F2083C701D3E0880F991F97
:104A2000DA95E1F7FC01EA0DFB1DE055FE4F20830E
:104A3000FC01E00FF11FE055FE4F2083E50115C09A
:104A4000C401BE01A3010E943B23C401BE01A70112
:104A50000E943B23C601BE01A3010E943B23C60165
:104A6000BE01A7010E943B2321960C171D0744F7A6
:104A7000E30115C0C401B501AE010E943B23C4018E
:104A8000B801AE010E943B23C601B501AE010E94F0
:104A90003B23C601B801AE010E943B232196EC16D0
:104AA000FD0644F7DF91CF911F910F91FF90EF909A
:104AB000DF90CF90BF90AF909F908F907F906F903E
:104AC00008952F923F924F925F926F927F928F92B2
:104AD0009F92AF92BF92CF92DF92EF92FF920F938D
:104AE0001F93CF93DF9300D00F92CDB7DEB72C0189
:104AF0004B015A0139016801281739072CF4982F06
:104B0000852D2901692E782EC814D9042CF4982DEE
:104B1000892D4601C92ED82EEA14FB042CF49A2DB7
:104B20008B2D5701E92EF82E81E090E09C01062C98
:104B300002C0220F331F0A94E2F7042C02C0880F30
:104B4000991F0A94E2F7282B85012CC048155905B6
:104B500049F04C155D0531F00A151B0519F00E15CD
:104B60001F0589F4C201B3012B8349835A830E9434
:104B7000B72449815A81F101E40FF51FE055FE4F3A
:104B800080832B8108C0F101E40FF51FE055FE4F33
:104B90008081822B80834F5F5F4FC416D506B4F6A9
:104BA0000F5F1F4FE016F10644F0A401180183E0E7
:104BB000220C331C8A95E1F7F0CF0F900F900F90E5
:104BC000DF91CF911F910F91FF90EF90DF90CF90E9
:104BD000BF90AF909F908F907F906F905F904F901D
:104BE0003F902F9008952F923F924F925F926F9235
:104BF0007F928F929F92AF92BF92CF92DF92EF926D
:104C0000FF920F931F93CF93DF9300D00F92CDB7F6
:104C1000DEB71C012B01390148015701281739075C
:104C20002CF4982F832D1901692E782E8414950465
:104C30002CF4942D852D2401892E982EA416B506CA
:104C40002CF4942F852FA501A92EB82E6A011DC022
:104C500089010E0D1F1D00551E4FF8014081C10135
:104C6000B3012A833B8349830E94B7244981842B63
:104C7000F80180830894E11CF11C3B812A818E1489
:104C80009F0434F70894C11CD11CAC14BD0444F03B
:104C90007201960193E0220F331F9A95E1F7EFCF4F
:104CA0000F900F900F90DF91CF911F910F91FF9078
:104CB000EF90DF90CF90BF90AF909F908F907F90BC
:104CC0006F905F904F903F902F900895282F30E085
:104CD000982F929596959270482F441F4427441F11
:104CE000942B482F4695469546954470942B86956F
:104CF0008870982BA901440F551F4071942BA9016E
:104D000073E0440F551F7A95E1F74072942BA90187
:104D1000E5E0440F551FEA95E1F74074942B369572
:104D2000322F222737952795892F822B08952F928E
:104D30003F924F925F926F927F928F929F92AF922B
:104D4000BF92CF92DF92EF92FF920F931F93CF9378
:104D5000DF93CDB7DEB762970FB6F894DEBF0FBE14
:104D6000CDBF9A8389832B015A013C832B83B801E1
:104D70001701281739077CF48B2D5701242E382E64
:104D8000942D852D2801692F782F99818A813A8366
:104D900029839B838C830B811C8189819A81081BC9
:104DA000190B641575052CF4D201A61BB70BBD01B8
:104DB00002C064197509882777FD8095982F0E9495
:104DC00078526B017C01B801882777FD8095982F78
:104DD0000E9478529B01AC01C701B6010E94DD51CF
:104DE0006D837E838F83692E8B809C80E981FA811D
:104DF0008E1A9F0A2A143B0424F4B5016219730920
:104E000003C0B1016A197B09882777FD8095982F27
:104E10000E9478526B017C01B401882777FD809550
:104E2000982F0E9478529B01AC01C701B6010E94E5
:104E3000DD51762E072F182F292FF981F88722248C
:104E40003324C201AA2797FDA095BA2F89879A8794
:104E5000AB87BC87C501AA2797FDA095BA2F8D8780
:104E60009E87AF87B88B2A8B4DC0B201A981BA81CA
:104E70006A1B7B0B882777FD8095982F0E947852BC
:104E80004B015C015D814E813F81852F942FA32FC3
:104E9000B62DBC01CD01A50194010E943D536B01CB
:104EA0007C0169857A858B859C850E9478529B015F
:104EB000AC01C701B6010E9476510E944A52698B2B
:104EC0002A89872D902FA12FB22FBC01CD01A501DA
:104ED00094010E943D536B017C016D857E858F8519
:104EE00098890E9478529B01AC01C701B6010E94CB
:104EF00076510E944A52462FC201698970E050E003
:104F00000E943B234884420C55240894211C311CE8
:104F1000EB81FC81E415F5050CF0A7CF62960FB686
:104F2000F894DEBF0FBECDBFDF91CF911F910F91DF
:104F3000FF90EF90DF90CF90BF90AF909F908F90B9
:104F40007F906F905F904F903F902F9008950AC090
:104F500024EB0000000000000000000000002150D1
:104F6000C1F701970097A1F70895A0EBB1E0E0E742
:104F7000F1E080E401900D928150E1F708954F92A5
:104F80005F926F927F928F929F92BF92CF92DF92A9
:104F9000EF92FF920F931F93CF93DF93C82E3B01A5
:104FA00088249924B7E04B2E512C4FEF64164FEF15
:104FB000740621F07201E818F90801C07401C701F4
:104FC00001969701215030404FEF64164FEF740661
:104FD00019F4B82ED92E02C0B22ED32E00E010E064
:104FE00035C08AE7C81659F4C801BE014B2D5D2DA6
:104FF0000E946023282FC801BE01A7011BC049E7FA
:10500000C41659F4C8016B2D7D2DAE010E9460239A
:10501000282FC801B701AE010DC088E7C81669F492
:105020008B2D9D2DBE01A8010E946023282FC70152
:10503000BE01A80130E00E9485232196C830D10529
:1050400081F60F5F1F4F0830110519F0C0E0D0E066
:10505000C8CF0894811C911C48E08416910409F083
:10506000A4CF8FEF68168FEF780621F4A7E0EA2E21
:10507000F12C02C0EE24FF2400E010E01FC04AE73C
:10508000C41621F4C801BE01A7010DC089E7C816E6
:1050900021F4C801B701AE0106C048E7C41629F4DF
:1050A000C701BE01A8010E94F0222196C830D10597
:1050B00031F70F5F1F4F0830110519F0C0E0D0E045
:1050C000DECFDF91CF911F910F91FF90EF90DF9096
:1050D000CF90BF909F908F907F906F905F904F90F8
:1050E00008954F925F926F927F928F929F92AF92AC
:1050F000BF92CF92DF92EF92FF920F931F93CF93C5
:10510000DF93CDB7DEB7C054D0400FB6F894DEBF02
:105110000FBECDBFDE011196E0EBF1E080E401901F
:105120000D928150E1F70E9487245E010894A11C32
:10513000B11CCC24DD2417E0612E712C30C0F201AB
:10514000808190E00E2C02C0959587950A94E2F735
:1051500080FF05C0C701B401A6010E943B2308944B
:10516000E11CF11CF8E0EF16F10449F70F5F1F4F47
:105170000830110549F0EE24FF242501400E511E90
:105180004301801A910ADBCF0894C11CD11C88E02E
:1051900090E0A80EB91E98E0C916D10419F000E0FD
:1051A00010E0E9CFC05CDF4F0FB6F894DEBF0FBE52
:1051B000CDBFDF91CF911F910F91FF90EF90DF90C6
:1051C000CF90BF90AF909F908F907F906F905F90A7
:1051D0004F900895AF92BF92CF92DF92EF92FF92DD
:1051E0000F931F93CF93DF93CDB7DEB7C054D0405A
:1051F0000FB6F894DEBF0FBECDBFDE011196E0EB17
:10520000F1E080E401900D928150E1F70E94872443
:105210006E010894C11CD11CEE24FF241CC0F601B1
:10522000E00FF11F80810E946626F501E00FF11F5B
:10523000E055FE4F80830F5F1F4F0830110579F74F
:105240000894E11CF11C88E090E0C80ED91E98E09B
:10525000E916F10449F000E010E0570183E0AA0CE0
:10526000BB1C8A95E1F7DBCFC05CDF4F0FB6F8942B
:10527000DEBF0FBECDBFDF91CF911F910F91FF9089
:10528000EF90DF90CF90BF90AF900895CF93DF93D2
:10529000CDB7DEB7C054D0400FB6F894DEBF0FBE16
:1052A000CDBFDE011196E0EBF1E080E401900D92BC
:1052B0008150E1F780E090E01AC0FB01E20FF31F9C
:1052C000A081FA01B3E0EE0FFF1FBA95E1F7E80FF6
:1052D000F91FE055FE4FA083285F3F4F41505040DB
:1052E0002034310551F701968830910559F047E097
:1052F00050E020E030E061E070E06C0F7D1F680F4F
:10530000791FDBCFC05CDF4F0FB6F894DEBF0FBE56
:10531000CDBFDF91CF9108958F929F92AF92BF92B0
:10532000CF92DF92EF92FF92CF93DF93C0E0D0E075
:10533000BE0183E0759567958A95E1F7882777FD2B
:105340008095982F0E9478526B017C010E94A05397
:105350009B01AC010E94765120E030E040E650E431
:105360000E9476510E9445524B015C01C701B60173
:105370000E94DA519B01AC010E94765120E030E09E
:1053800040E650E40E9476510E9445526B017C0138
:10539000C401B60141E050E00E943B23C401B601C4
:1053A00041E050E00E943B2388EE93E00E94A72753
:1053B00080E00E948724219683E0C83ED80709F048
:1053C000B7CFDF91CF91FF90EF90DF90CF90BF905C
:1053D000AF909F908F9008956F927F928F929F923F
:1053E000AF92BF92CF92DF92EF92FF920F931F93F3
:1053F000CF93DF9300D000D00F92CDB7DEB76C0112
:1054000030E8A32EB12C46C0BE016F5F7F4F0E94D3
:10541000753900E010E021C095010E2C02C03595D1
:1054200027950A94E2F7F401808190E0282339233C
:105430002115310531F087E090E0B301A7010E940A
:105440003B230894E11CF11CF8E0EF16F10421F76E
:105450000F5F1F4F0530110579F0EE24FF2491E016
:10546000892E912C8C0E9D1E800E911E22E0622EA4
:10547000712C600E711ED0CF06E010E088EE93E034
:105480000E94A72788E76FEF7FEF0E94BF27015098
:105490001040A1F7F60181916F01882309F0B4CF84
:1054A00008E010E088EE93E00E94A72788E76FEFFE
:1054B0007FEF0E94BF2701501040A1F70F900F907F
:1054C0000F900F900F90DF91CF911F910F91FF9050
:1054D000EF90DF90CF90BF90AF909F908F907F9094
:1054E0006F9008950F931F93CF93DF93C82FD62FFC
:1054F000072F10E080E00E9487248C2F612F0E94EC
:105500005F248D2F902F0E94A7271F5F183091F7DF
:1055100017E080E00E9487248C2F612F0E945F2477
:105520008D2F902F0E94A727115098F7DF91CF91D0
:105530001F910F910895AF92BF92CF92DF92EF9299
:10554000FF920F931F93CF93DF9380E00E948724F5
:1055500002E010E046EFE42E4FEFF42E58EEC52E99
:1055600053E0D52E6FEEA62E62E0B62E41C080E04D
:105570000E948724CE010E94A7278FEF0E948724D4
:1055800084E690E00E94A727CE01B7010E94F6535F
:10559000C6010E94F6536F507040C60FD71F1C16ED
:1055A0001D062CF388EE93E00E94A727CEEED2E0F2
:1055B00080E00E948724C5018C1B9D0B0E94A727B9
:1055C0008FEF0E94872484E690E00E94A727CE01F7
:1055D000B7010E94F653C6010E94F6536F50704007
:1055E000C60FD71F1C161D061CF30150104019F0E2
:1055F000CEEED2E0BCCFDF91CF911F910F91FF9003
:10560000EF90DF90CF90BF90AF9008952F923F9290
:105610004F925F926F927F928F929F92AF92BF92C2
:10562000CF92DF92EF92FF920F931F93CF93DF936E
:1056300000D000D0CDB7DEB73C015B012A011901D3
:10564000CC24DD24E7E08E2E912CCB0102979A83A7
:1056500089834EC01C821B82EB81FC81E830F105FE
:1056600024F47401EE1AFF0A08C078EFE72E7FEFEA
:10567000F72E8B819C81E80EF91E80E00E94872422
:1056800081E090E00E94A727F89480E090E060E03D
:1056900070E040E050E0970187010E94CB24141491
:1056A000150414F40E94462991E0A916B10421F0D2
:1056B000E3E0AE16B10411F40E94712889819A8149
:1056C0008230910510F40E94EA287894C1010E946A
:1056D000A72780E00E948724EB81FC813196FC8320
:1056E000EB83E031F10509F0B7CF0894C11CD11C60
:1056F000C614D7040CF4AECF0F900F900F900F90FC
:10570000DF91CF911F910F91FF90EF90DF90CF909D
:10571000BF90AF909F908F907F906F905F904F90D1
:105720003F902F9008958F929F92AF92BF92CF9209
:10573000DF92EF92FF920F931F93CF93DF935C0161
:105740004B0180E00E948724C0E0D0E0F3E0CF2E40
:10575000D12C1814190424F4C6018C1B9D0B01C014
:10576000CE01AC014C5F5F4F7601E81AF90ACA011D
:10577000BA01970187010E94CB24C5010E94A72787
:1057800080E00E9487242196C430D10511F7DF9173
:10579000CF911F910F91FF90EF90DF90CF90BF902E
:1057A000AF909F908F9008956F927F929F92AF924B
:1057B000BF92CF92DF92EF92FF920F931F93CF93FE
:1057C000DF93F82EE62E942E390100E010E0A7E0DA
:1057D000CA2ED12CB8E0AB2EB12C87E0981669F414
:1057E000E601C01BD10BA501401B510B8F2D90E092
:1057F0006E2D70E00E94F0220AC0A8014150504076
:105800008F2D90E06E2D70E00E94F022E8018F2D28
:1058100090E06E2D70E0AE010E943B23C3010E9418
:10582000A7270F5F1F4F08301105B9F6DF91CF9101
:105830001F910F91FF90EF90DF90CF90BF90AF90AE
:105840009F907F906F900895AF92BF92CF92DF921A
:10585000EF92FF920F931F93CF93DF93C82F6B01AB
:105860005A0180E00E9487248C2F90E00E94C2237E
:1058700011E1D4E0ED2EF12C1FC00E947254B7014B
:105880000E94F653D82F0E947254B7010E94F6531B
:10589000082F8D2F90E0602F70E04C2F50E00E9479
:1058A0006023882351F38D2F602F4C2F96010E9487
:1058B000D42BC5010E94A7271150F9F6DF91CF9193
:1058C0001F910F91FF90EF90DF90CF90BF90AF901E
:1058D00008952F923F924F925F926F927F928F9294
:1058E0009F92AF92BF92DF92EF92FF920F931F931E
:1058F000CF93DF931C013B012A0180E00E948724A3
:1059000000E010E032E0E32EF12C1AC00E94725445
:10591000B7010E94F653AC0123E0440F551F2A95AE
:10592000E1F7481B590BC801BE010E943B23219699
:10593000C830D10559F70F5F1F4F0830110589F1A5
:10594000C0E0D0E0E3CF0E9472544C010E94725438
:10595000B5010E94F653C82FF82E8E1501F1C4012F
:10596000B5010E94F653D82F182F8D15C1F090E085
:105970006C2F70E040E050E00E946023882321F00B
:105980008D2F6C2F40E003C08D2F6C2F47E09301CB
:105990000E94D42BC2010E94A727EF2CD12E0F5FAB
:1059A00006C000E0EE24DD2418E0A12EB12C802FEB
:1059B00090E0821593053CF2DF91CF911F910F91FA
:1059C000FF90EF90DF90BF90AF909F908F907F906F
:1059D0006F905F904F903F902F9008952F923F923D
:1059E0004F925F926F927F928F929F92AF92BF92EF
:1059F000CF92DF92EF92FF920F931F93CF93DF939B
:105A0000CDB7DEB7E8970FB6F894DEBF0FBECDBFB7
:105A10009CAB8BAB7EAB6DAB622E80E00E9487248B
:105A20000E94725408E010E0B8010E94F653B82EAC
:105A3000A92E482E592E0E947254B8010E94F65386
:105A4000E82EC92E282E392E0E947254B8010E94C9
:105A5000F6534C019E012F5C3F4F3AAB29ABFE0140
:105A60003196E082C182B282A38284839583369686
:105A700029A93AA9E217F307A1F701E010E081E0B4
:105A8000E82EF12C91E0C92ED12C21E030E02C0F32
:105A90003D1F2C50304038AF2FAB5AC20E94725479
:105AA00063E070E00E94F653009769F50E9472541B
:105AB00063E070E00E94F653009759F40E9472541C
:105AC00063E070E00E94F6536C010894C108D108AD
:105AD0001AC08130910559F40E94725463E070E05D
